{
  "contractName": "Certification",
  "abi": [
    {
      "constant": true,
      "inputs": [
        {
          "internalType": "uint256",
          "name": "",
          "type": "uint256"
        }
      ],
      "name": "certification_acesss_by",
      "outputs": [
        {
          "internalType": "address",
          "name": "",
          "type": "address"
        }
      ],
      "payable": false,
      "stateMutability": "view",
      "type": "function"
    },
    {
      "constant": true,
      "inputs": [],
      "name": "certification_ipfs_hashValue",
      "outputs": [
        {
          "internalType": "string",
          "name": "",
          "type": "string"
        }
      ],
      "payable": false,
      "stateMutability": "view",
      "type": "function"
    },
    {
      "constant": true,
      "inputs": [],
      "name": "certification_merklee_hashvalue",
      "outputs": [
        {
          "internalType": "string",
          "name": "",
          "type": "string"
        }
      ],
      "payable": false,
      "stateMutability": "view",
      "type": "function"
    },
    {
      "constant": true,
      "inputs": [],
      "name": "certification_unique_id",
      "outputs": [
        {
          "internalType": "uint256",
          "name": "",
          "type": "uint256"
        }
      ],
      "payable": false,
      "stateMutability": "view",
      "type": "function"
    },
    {
      "constant": true,
      "inputs": [],
      "name": "date",
      "outputs": [
        {
          "internalType": "uint256",
          "name": "",
          "type": "uint256"
        }
      ],
      "payable": false,
      "stateMutability": "view",
      "type": "function"
    },
    {
      "constant": true,
      "inputs": [],
      "name": "issuedBy",
      "outputs": [
        {
          "internalType": "address",
          "name": "",
          "type": "address"
        }
      ],
      "payable": false,
      "stateMutability": "view",
      "type": "function"
    },
    {
      "constant": true,
      "inputs": [],
      "name": "issued_to",
      "outputs": [
        {
          "internalType": "address",
          "name": "",
          "type": "address"
        }
      ],
      "payable": false,
      "stateMutability": "view",
      "type": "function"
    },
    {
      "constant": true,
      "inputs": [
        {
          "internalType": "uint256",
          "name": "",
          "type": "uint256"
        }
      ],
      "name": "requested_by",
      "outputs": [
        {
          "internalType": "address",
          "name": "",
          "type": "address"
        }
      ],
      "payable": false,
      "stateMutability": "view",
      "type": "function"
    },
    {
      "constant": true,
      "inputs": [],
      "name": "studentName",
      "outputs": [
        {
          "internalType": "string",
          "name": "",
          "type": "string"
        }
      ],
      "payable": false,
      "stateMutability": "view",
      "type": "function"
    },
    {
      "constant": false,
      "inputs": [],
      "name": "setDate",
      "outputs": [],
      "payable": false,
      "stateMutability": "nonpayable",
      "type": "function"
    },
    {
      "constant": true,
      "inputs": [],
      "name": "accessLength",
      "outputs": [
        {
          "internalType": "uint256",
          "name": "",
          "type": "uint256"
        }
      ],
      "payable": false,
      "stateMutability": "view",
      "type": "function"
    },
    {
      "constant": false,
      "inputs": [
        {
          "internalType": "address",
          "name": "_oAdd",
          "type": "address"
        }
      ],
      "name": "setIssuedBy",
      "outputs": [],
      "payable": false,
      "stateMutability": "nonpayable",
      "type": "function"
    },
    {
      "constant": false,
      "inputs": [
        {
          "internalType": "address",
          "name": "_iT",
          "type": "address"
        }
      ],
      "name": "setIssuedTo",
      "outputs": [],
      "payable": false,
      "stateMutability": "nonpayable",
      "type": "function"
    },
    {
      "constant": false,
      "inputs": [
        {
          "internalType": "string",
          "name": "name",
          "type": "string"
        }
      ],
      "name": "setStudentName",
      "outputs": [],
      "payable": false,
      "stateMutability": "nonpayable",
      "type": "function"
    },
    {
      "constant": false,
      "inputs": [
        {
          "internalType": "string",
          "name": "hashValue",
          "type": "string"
        }
      ],
      "name": "setCertificationIpfsHashvalue",
      "outputs": [],
      "payable": false,
      "stateMutability": "nonpayable",
      "type": "function"
    },
    {
      "constant": false,
      "inputs": [
        {
          "internalType": "string",
          "name": "merkleeHashavlue",
          "type": "string"
        }
      ],
      "name": "setMerkleeHashvalue",
      "outputs": [],
      "payable": false,
      "stateMutability": "nonpayable",
      "type": "function"
    },
    {
      "constant": false,
      "inputs": [
        {
          "internalType": "address",
          "name": "_addAddress",
          "type": "address"
        }
      ],
      "name": "addCertificationAddress",
      "outputs": [],
      "payable": false,
      "stateMutability": "nonpayable",
      "type": "function"
    },
    {
      "constant": false,
      "inputs": [
        {
          "internalType": "uint256",
          "name": "_id",
          "type": "uint256"
        }
      ],
      "name": "setUniqueId",
      "outputs": [],
      "payable": false,
      "stateMutability": "nonpayable",
      "type": "function"
    },
    {
      "constant": true,
      "inputs": [
        {
          "internalType": "address",
          "name": "_addr",
          "type": "address"
        }
      ],
      "name": "checkAddressAcess",
      "outputs": [
        {
          "internalType": "string",
          "name": "",
          "type": "string"
        }
      ],
      "payable": false,
      "stateMutability": "view",
      "type": "function"
    },
    {
      "constant": false,
      "inputs": [
        {
          "internalType": "address",
          "name": "_addr",
          "type": "address"
        }
      ],
      "name": "requestAcess",
      "outputs": [],
      "payable": false,
      "stateMutability": "nonpayable",
      "type": "function"
    },
    {
      "constant": true,
      "inputs": [],
      "name": "requests",
      "outputs": [
        {
          "internalType": "address[]",
          "name": "",
          "type": "address[]"
        }
      ],
      "payable": false,
      "stateMutability": "view",
      "type": "function"
    },
    {
      "constant": false,
      "inputs": [
        {
          "internalType": "uint256",
          "name": "index",
          "type": "uint256"
        }
      ],
      "name": "remove",
      "outputs": [],
      "payable": false,
      "stateMutability": "nonpayable",
      "type": "function"
    },
    {
      "constant": false,
      "inputs": [
        {
          "internalType": "address",
          "name": "add",
          "type": "address"
        }
      ],
      "name": "giveAcess",
      "outputs": [],
      "payable": false,
      "stateMutability": "nonpayable",
      "type": "function"
    }
  ],
  "bytecode": "0x608060405234801561001057600080fd5b50610c2e806100206000396000f3fe608060405234801561001057600080fd5b506004361061014d5760003560e01c806399aad941116100c3578063d40afd8b1161007c578063d40afd8b146104c2578063d6edce1c146104ca578063e264da6914610570578063e5d235f41461058d578063e6e6b7c1146105b3578063f9850008146105d95761014d565b806399aad941146103dc578063a982bd5014610402578063b508ba3114610428578063b74cb2db14610430578063bf088e5714610488578063cea1e858146104a55761014d565b80634cc82215116101155780634cc822151461023d578063557084ce1461025a578063565eeb5a146102625780636bcda13b14610308578063717a29a0146103105780638a79aa70146103365761014d565b8063091841f1146101525780631679876a146101cf5780631f4591dd146101f75780632b64818f1461021b578063323046b114610235575b600080fd5b61015a6105e1565b6040805160208082528351818301528351919283929083019185019080838360005b8381101561019457818101518382015260200161017c565b50505050905090810190601f1680156101c15780820380516001836020036101000a031916815260200191505b509250505060405180910390f35b6101f5600480360360208110156101e557600080fd5b50356001600160a01b031661066e565b005b6101ff6106c0565b604080516001600160a01b039092168252519081900360200190f35b6102236106cf565b60408051918252519081900360200190f35b6102236106d6565b6101f56004803603602081101561025357600080fd5b50356106dc565b61015a610784565b6101f56004803603602081101561027857600080fd5b81019060208101813564010000000081111561029357600080fd5b8201836020820111156102a557600080fd5b803590602001918460018302840111640100000000831117156102c757600080fd5b91908080601f0160208091040260200160405190810160405280939291908181526020018383808284376000920191909152509295506107df945050505050565b6102236107f6565b6101f56004803603602081101561032657600080fd5b50356001600160a01b03166107fc565b6101f56004803603602081101561034c57600080fd5b81019060208101813564010000000081111561036757600080fd5b82018360208201111561037957600080fd5b8035906020019184600183028401116401000000008311171561039b57600080fd5b91908080601f016020809104026020016040519081016040528093929190818152602001838380828437600092019190915250929550610894945050505050565b6101f5600480360360208110156103f257600080fd5b50356001600160a01b03166108a7565b6101f56004803603602081101561041857600080fd5b50356001600160a01b03166108c9565b61015a61091b565b610438610976565b60408051602080825283518183015283519192839290830191858101910280838360005b8381101561047457818101518382015260200161045c565b505050509050019250505060405180910390f35b6101ff6004803603602081101561049e57600080fd5b50356109d8565b6101f5600480360360208110156104bb57600080fd5b50356109ff565b6101ff610a04565b6101f5600480360360208110156104e057600080fd5b8101906020810181356401000000008111156104fb57600080fd5b82018360208201111561050d57600080fd5b8035906020019184600183028401116401000000008311171561052f57600080fd5b91908080601f016020809104026020016040519081016040528093929190818152602001838380828437600092019190915250929550610a13945050505050565b6101ff6004803603602081101561058657600080fd5b5035610a26565b6101f5600480360360208110156105a357600080fd5b50356001600160a01b0316610a33565b61015a600480360360208110156105c957600080fd5b50356001600160a01b0316610a55565b6101f5610b5b565b60018054604080516020600284861615610100026000190190941693909304601f810184900484028201840190925281815292918301828280156106665780601f1061063b57610100808354040283529160200191610666565b820191906000526020600020905b81548152906001019060200180831161064957829003601f168201915b505050505081565b600880546001810182556000919091527ff3f7a9fe364faab93b216da50a3214154f22a0a2b415b23a84c8169e8b636ee30180546001600160a01b0319166001600160a01b0392909216919091179055565b6007546001600160a01b031681565b6002545b90565b60065481565b805b6008546000190181101561075357600881600101815481106106fc57fe5b600091825260209091200154600880546001600160a01b03909216918390811061072257fe5b600091825260209091200180546001600160a01b0319166001600160a01b03929092169190911790556001016106de565b50600880548061075f57fe5b600082815260209020810160001990810180546001600160a01b031916905501905550565b6000805460408051602060026001851615610100026000190190941693909304601f810184900484028201840190925281815292918301828280156106665780601f1061063b57610100808354040283529160200191610666565b80516107f2906001906020840190610b61565b5050565b60035481565b6002805460018101825560009182527f405787fa12a823e0f2b7631cc41b3ba8828b3321ca811111fa75cd3aa3bb5ace0180546001600160a01b0319166001600160a01b0384161790555b6008548110156107f257816001600160a01b03166008828154811061086857fe5b6000918252602090912001546001600160a01b0316141561088c5761088c816106dc565b600101610847565b80516107f2906005906020840190610b61565b600480546001600160a01b0319166001600160a01b0392909216919091179055565b600280546001810182556000919091527f405787fa12a823e0f2b7631cc41b3ba8828b3321ca811111fa75cd3aa3bb5ace0180546001600160a01b0319166001600160a01b0392909216919091179055565b6005805460408051602060026001851615610100026000190190941693909304601f810184900484028201840190925281815292918301828280156106665780601f1061063b57610100808354040283529160200191610666565b606060088054806020026020016040519081016040528092919081815260200182805480156109ce57602002820191906000526020600020905b81546001600160a01b031681526001909101906020018083116109b0575b5050505050905090565b600281815481106109e557fe5b6000918252602090912001546001600160a01b0316905081565b600355565b6004546001600160a01b031681565b80516107f2906000906020840190610b61565b600881815481106109e557fe5b600780546001600160a01b0319166001600160a01b0392909216919091179055565b606060005b600254811015610ac357826001600160a01b031660028281548110610a7b57fe5b6000918252602090912001546001600160a01b03161415610abb57505060408051808201909152600781526614149154d1539560ca1b6020820152610b56565b600101610a5a565b5060005b600854811015610b3257826001600160a01b031660088281548110610ae857fe5b6000918252602090912001546001600160a01b03161415610b2a575050604080518082019091526009815268149154555154d5115160ba1b6020820152610b56565b600101610ac7565b505060408051808201909152600a8152691393d517d4149154d39560b21b60208201525b919050565b42600655565b828054600181600116156101000203166002900490600052602060002090601f016020900481019282601f10610ba257805160ff1916838001178555610bcf565b82800160010185558215610bcf579182015b82811115610bcf578251825591602001919060010190610bb4565b50610bdb929150610bdf565b5090565b6106d391905b80821115610bdb5760008155600101610be556fea265627a7a72315820fe579c40406530e826bdbb8670ddaaab06c84fe1027caf3a76df7fe7de094e1564736f6c63430005100032",
  "source": "// SPDX-License-Identifier: MIT\r\npragma solidity >=0.4.21 <0.7.0;\r\n\r\ncontract Certification {\r\n    string public certification_ipfs_hashValue;\r\n    string public certification_merklee_hashvalue;\r\n    address[] public certification_acesss_by;\r\n    uint256 public certification_unique_id;\r\n    address public issued_to;\r\n    string public studentName;\r\n    uint256 public date;\r\n    address public issuedBy;\r\n    address[] public requested_by;\r\n\r\n    function setDate() public {\r\n        date = block.timestamp;\r\n    }\r\n\r\n    function accessLength() public view returns (uint256) {\r\n        return certification_acesss_by.length;\r\n    }\r\n\r\n    function setIssuedBy(address _oAdd) public {\r\n        issuedBy = _oAdd;\r\n    }\r\n\r\n    function setIssuedTo(address _iT) public {\r\n        issued_to = _iT;\r\n    }\r\n\r\n    function setStudentName(string memory name) public {\r\n        studentName = name;\r\n    }\r\n\r\n    function setCertificationIpfsHashvalue(string memory hashValue) public {\r\n        certification_ipfs_hashValue = hashValue;\r\n    }\r\n\r\n    function setMerkleeHashvalue(string memory merkleeHashavlue) public {\r\n        certification_merklee_hashvalue = merkleeHashavlue;\r\n    }\r\n\r\n    function addCertificationAddress(address _addAddress) public {\r\n        certification_acesss_by.push(_addAddress);\r\n    }\r\n\r\n    function setUniqueId(uint256 _id) public {\r\n        certification_unique_id = _id;\r\n    }\r\n\r\n    function checkAddressAcess(address _addr)\r\n        public\r\n        view\r\n        returns (string memory)\r\n    {\r\n        for (uint256 i = 0; i < certification_acesss_by.length; i++) {\r\n            if (certification_acesss_by[i] == _addr) {\r\n                return \"PRESENT\";\r\n            }\r\n        }\r\n        for (uint256 i = 0; i < requested_by.length; i++) {\r\n            if (requested_by[i] == _addr) {\r\n                return \"REQUESTED\";\r\n            }\r\n        }\r\n        return \"NOT_PRESNT\";\r\n    }\r\n\r\n    function requestAcess(address _addr) public {\r\n        requested_by.push(_addr);\r\n    }\r\n\r\n    function requests() public view returns (address[] memory) {\r\n        return requested_by;\r\n    }\r\n\r\n    function remove(uint256 index) public {\r\n        for (uint256 i = index; i < requested_by.length - 1; i++) {\r\n            requested_by[i] = requested_by[i + 1];\r\n        }\r\n        requested_by.pop();\r\n    }\r\n\r\n    function giveAcess(address add) public {\r\n        certification_acesss_by.push(add);\r\n        for (uint256 i = 0; i < requested_by.length; i++) {\r\n            if (requested_by[i] == add) {\r\n                remove(i);\r\n            }\r\n        }\r\n    }\r\n}\r\n",
  "sourcePath": "D:\\user_cherry\\User\\Projects\\miniprojectF\\contracts\\Certification.sol",
  "compiler": {
    "name": "solc",
    "version": "0.5.16+commit.9c3226ce.Emscripten.clang"
  },
  "schemaVersion": "3.2.3",
  "updatedAt": "2022-06-01T16:04:09.353Z",
  "networkType": "ethereum",
  "devdoc": {
    "methods": {}
  },
  "userdoc": {
    "methods": {}
  }
}